{
  "contractName": "Delta",
  "abi": [
    {
      "inputs": [],
      "payable": false,
      "stateMutability": "nonpayable",
      "type": "constructor"
    },
    {
      "anonymous": false,
      "inputs": [
        {
          "indexed": false,
          "name": "o_item",
          "type": "string"
        },
        {
          "indexed": false,
          "name": "o_price",
          "type": "uint256"
        },
        {
          "indexed": false,
          "name": "o_address",
          "type": "address"
        },
        {
          "indexed": false,
          "name": "o_ended",
          "type": "uint256"
        },
        {
          "indexed": false,
          "name": "o_state",
          "type": "bool"
        }
      ],
      "name": "offer_info",
      "type": "event"
    },
    {
      "anonymous": false,
      "inputs": [
        {
          "indexed": false,
          "name": "my_address",
          "type": "address"
        },
        {
          "indexed": false,
          "name": "my_email",
          "type": "string"
        },
        {
          "indexed": false,
          "name": "my_monto",
          "type": "uint256"
        }
      ],
      "name": "last_bidder",
      "type": "event"
    },
    {
      "constant": false,
      "inputs": [
        {
          "name": "_players_email",
          "type": "string"
        }
      ],
      "name": "make_an_offer",
      "outputs": [],
      "payable": true,
      "stateMutability": "payable",
      "type": "function"
    },
    {
      "constant": false,
      "inputs": [
        {
          "name": "time",
          "type": "uint256"
        }
      ],
      "name": "finish_auction",
      "outputs": [],
      "payable": true,
      "stateMutability": "payable",
      "type": "function"
    }
  ],
  "bytecode": "0x608060405234801561001057600080fd5b5033600460006101000a81548173ffffffffffffffffffffffffffffffffffffffff021916908373ffffffffffffffffffffffffffffffffffffffff160217905550600460009054906101000a900473ffffffffffffffffffffffffffffffffffffffff16600760006101000a81548173ffffffffffffffffffffffffffffffffffffffff021916908373ffffffffffffffffffffffffffffffffffffffff1602179055506729a2241af62c00006000819055506040805190810160405280600d81526020017f50524f4a4543545f3058303031000000000000000000000000000000000000008152506001908051906020019061010f9291906103e2565b506001600260006101000a81548160ff02191690831515021790555062278d0042016003819055506040805190810160405280601481526020017f576974686f7574205061727469636970616e7473000000000000000000000000815250600590805190602001906101829291906103e2565b506040805190810160405280600e81526020017f4e6f742072656769737465726564000000000000000000000000000000000000815250600690805190602001906101ce9291906103e2565b5060006008819055507ffa5d1c6b20c973ca96b4d469159ae2b68023be0861cdd8dfb23193da6dfa25466001600054600460009054906101000a900473ffffffffffffffffffffffffffffffffffffffff16600354600260009054906101000a900460ff1660405180806020018681526020018573ffffffffffffffffffffffffffffffffffffffff1673ffffffffffffffffffffffffffffffffffffffff168152602001848152602001831515151581526020018281038252878181546001816001161561010002031660029004815260200191508054600181600116156101000203166002900480156103045780601f106102d957610100808354040283529160200191610304565b820191906000526020600020905b8154815290600101906020018083116102e757829003601f168201915b5050965050505050505060405180910390a17f9e922b3ae8dc9435290a73c1b669473286d28075f442ecaf6317d59aa0b74294600760009054906101000a900473ffffffffffffffffffffffffffffffffffffffff166000604051808373ffffffffffffffffffffffffffffffffffffffff1673ffffffffffffffffffffffffffffffffffffffff168152602001806020018381526020018281038252601f8152602001807f506c6179657220656d61696c206e6f7420796574207265676973746572656400815250602001935050505060405180910390a1610487565b828054600181600116156101000203166002900490600052602060002090601f016020900481019282601f1061042357805160ff1916838001178555610451565b82800160010185558215610451579182015b82811115610450578251825591602001919060010190610435565b5b50905061045e9190610462565b5090565b61048491905b80821115610480576000816000905550600101610468565b5090565b90565b6106da806104966000396000f30060806040526004361061004c576000357c0100000000000000000000000000000000000000000000000000000000900463ffffffff168063841465211461005157806387e6dfbb146100ad575b600080fd5b6100ab600480360381019080803590602001908201803590602001908080601f01602080910402602001604051908101604052809392919081815260200183838082843782019150505050505091929192905050506100cd565b005b6100cb60048036038101908080359060200190929190505050610305565b005b600854341180156100e057506000543410155b80156100f85750600260009054906101000a900460ff165b156102fd57600760009054906101000a900473ffffffffffffffffffffffffffffffffffffffff1673ffffffffffffffffffffffffffffffffffffffff166108fc343073ffffffffffffffffffffffffffffffffffffffff1631039081150290604051600060405180830381858888f1935050505015801561017e573d6000803e3d6000fd5b5033600760006101000a81548173ffffffffffffffffffffffffffffffffffffffff021916908373ffffffffffffffffffffffffffffffffffffffff16021790555080600690805190602001906101d6929190610609565b50346008819055507f9e922b3ae8dc9435290a73c1b669473286d28075f442ecaf6317d59aa0b74294600760009054906101000a900473ffffffffffffffffffffffffffffffffffffffff166006600854604051808473ffffffffffffffffffffffffffffffffffffffff1673ffffffffffffffffffffffffffffffffffffffff168152602001806020018381526020018281038252848181546001816001161561010002031660029004815260200191508054600181600116156101000203166002900480156102e85780601f106102bd576101008083540402835291602001916102e8565b820191906000526020600020905b8154815290600101906020018083116102cb57829003601f168201915b505094505050505060405180910390a1610302565b600080fd5b50565b600081111515610606576000600260006101000a81548160ff021916908315150217905550600460009054906101000a900473ffffffffffffffffffffffffffffffffffffffff1673ffffffffffffffffffffffffffffffffffffffff166108fc343073ffffffffffffffffffffffffffffffffffffffff1631039081150290604051600060405180830381858888f193505050501580156103ab573d6000803e3d6000fd5b507ffa5d1c6b20c973ca96b4d469159ae2b68023be0861cdd8dfb23193da6dfa25466001600054600460009054906101000a900473ffffffffffffffffffffffffffffffffffffffff16600354600260009054906101000a900460ff1660405180806020018681526020018573ffffffffffffffffffffffffffffffffffffffff1673ffffffffffffffffffffffffffffffffffffffff168152602001848152602001831515151581526020018281038252878181546001816001161561010002031660029004815260200191508054600181600116156101000203166002900480156104d95780601f106104ae576101008083540402835291602001916104d9565b820191906000526020600020905b8154815290600101906020018083116104bc57829003601f168201915b5050965050505050505060405180910390a17f9e922b3ae8dc9435290a73c1b669473286d28075f442ecaf6317d59aa0b74294600760009054906101000a900473ffffffffffffffffffffffffffffffffffffffff166006600854604051808473ffffffffffffffffffffffffffffffffffffffff1673ffffffffffffffffffffffffffffffffffffffff168152602001806020018381526020018281038252848181546001816001161561010002031660029004815260200191508054600181600116156101000203166002900480156105f55780601f106105ca576101008083540402835291602001916105f5565b820191906000526020600020905b8154815290600101906020018083116105d857829003601f168201915b505094505050505060405180910390a15b50565b828054600181600116156101000203166002900490600052602060002090601f016020900481019282601f1061064a57805160ff1916838001178555610678565b82800160010185558215610678579182015b8281111561067757825182559160200191906001019061065c565b5b5090506106859190610689565b5090565b6106ab91905b808211156106a757600081600090555060010161068f565b5090565b905600a165627a7a723058209efe9603811526da69b4ef76707f72c3f806f65170dbdd6955b410a0caae87e60029",
  "source": "//pragma solidity >=0.4.21 <0.6.0;\npragma solidity ^0.4.24;\n\ncontract Delta {\n\n    // ITEM DATA\n    uint starting_price;\n    string item;\n    bool open_game;\n    uint end_time;\n    address owner;\n\n    // PLAYER DATA\n    string players_name;\n    string players_email;\n    address player_address;\n    uint offered_price;\n\n    // MESSAGES\n    event offer_info(string o_item, uint o_price, address o_address, uint o_ended, bool o_state);\n    event last_bidder(address my_address, string my_email, uint my_monto);\n\n    constructor() public {\n      owner = msg.sender; //temporary data, account of the owner of the item\n      player_address = owner;\n      starting_price = 3 * 1000000000000000000;\n      item = \"PROJECT_0X001\";\n      open_game = true;\n      end_time = now + (60*60*24*30); //2592000;\n\n      players_name = \"Without Participants\";\n      players_email = \"Not registered\";\n      offered_price = 0;\n\n      emit offer_info(item, starting_price, owner, end_time, open_game);\n      emit last_bidder(player_address, \"Player email not yet registered\", 0);\n    }\n\n    function make_an_offer (string memory _players_email) public payable{\n      if((msg.value > offered_price) && (msg.value  >= starting_price) && open_game){\n          // return money to the previous player\n          player_address.transfer(address(this).balance-msg.value);\n          // update new player data\n          player_address = msg.sender;\n          players_email = _players_email;\n          offered_price = msg.value;\n          emit last_bidder(player_address, players_email, offered_price);\n      }else{\n        revert();\n      }\n    }\n\n    function finish_auction(uint time) public payable{\n        if(time <= 0){\n            open_game = false;\n            owner.transfer(address(this).balance-msg.value);\n            emit offer_info(item, starting_price, owner, end_time, open_game);\n            emit last_bidder(player_address, players_email, offered_price);\n        }\n    }\n}\n",
  "sourcePath": "/home/jkn/Documents/rocket/contracts/Delta.sol",
  "compiler": {
    "name": "solc",
    "version": "0.4.24+commit.e67f0147.Emscripten.clang"
  },
  "schemaVersion": "2.0.1",
  "updatedAt": "2019-11-19T04:03:52.741Z"
}